:03000000020B846C
:0C0B8400787FE4F6D8FD758150020BCBA1
:10103D00000000FF0000EC5F00F39700FBC800C448
:10104D00D84000FF0000A26100AF846CBD6500694F
:10105D00930000FF006EB73A82C50092C9CE7F9A09
:03106D00FFFFFF83
:100E360001210002240000014400012D00012900C7
:100E4600014500014700013D140120000123000176
:100E56002200012B00012800012700042F000000BA
:100E660000043500000000014600013A000133008D
:100E7600014A00023B0000012A00012E0001420047
:030E86000139002F
:040F2E008E4B8F4C0B
:100F3200E4F550F54FF54EF54DAE4BAF4C7C007DD0
:100F42000A1208CDEE3395E0FDFCAB50AA4FA94E34
:100F5200A84DC31208DF501BE4FAF9F8E55024014A
:100F6200F550EA354FF54FE9354EF54EE8354DF57A
:030F72004D80C6E9
:010F75002259
:0E111000E4FFFE0FBF00010EBE06F8BFA4F5FF
:01111E0022AE
:0E111F00E4FFFE0FBF00010EBE45F8BF24F531
:01112D00229F
:1010CA00E4FFFE0030B50B0FBF00010EEF64644E63
:0210DA0070F1B3
:0110DC0022F1
:0700030000000000000022D4
:100AD400E4F5864396809080087402F0C290121167
:100AE4001FC2907481F09080097402F090800AF023
:100AF40090800BF090800CF090800DF090800EF0C0
:100B040090800FF0908018F0908019F090801AF087
:100B140090801D14F0D20D1210F0121100300C034D
:100B240012091B300D0A30B507C20D120C10800BD0
:100B3400200D0820B505D20D120A1275AAA5E52DBF
:100B440060DB200AD8200BD5E4F52DA290B333FF47
:100B5400121003BF020CE5467005120F76800312D3
:100B64000017E5467015751103751225FBFDFF127C
:100B74000D0DE4F52AF53BF53C80A212000E809D94
:10091B00E541F4F54365406003020A0DE5456003CC
:10092B00020A0D75450AE5431208F509BF0009D8FF
:10093B000109F1020A0A0309C40409DD0509F606D7
:10094B0009C90809E20909FB0A09CE0C09E70D0AD6
:10095B00000E09D31009EC110A051209A31C09B1E9
:10096B001D09991E099E1F097C4509894600000A2D
:10097B000D751103751225E4FBFD7FFF800B7511BF
:10098B0003751225E4FB7DFFFF120D0D8074120021
:10099B0017806F120F76806A053DE53DC3941440B6
:1009AB0061753D14805C153DE53DC394085053754E
:1009BB003D08804E753A018049753A028044753A7C
:1009CB0003803F753A04803A753A058035753A06CF
:1009DB008030753A07802B753A088026753A098066
:1009EB0021753A0A801C753A0B8017753A0C8012E8
:1009FB00753A0D800D753A0E8008753A0F800375A8
:070A0B003A10C20C0210704A
:09000E00E546B40103120C9B222B
:100C9B00E53A75F003A4243DF9741035F0FA7BFFA7
:100CAB0078097C007D007E007F0312081D750C0106
:100CBB00750D6A12112EE53A75F003A4243DF974F3
:100CCB001035F0FA7BFF78097C007D007E007F03F6
:100CDB0012081D750C02750D2512112EE53A75F0D3
:100CEB0003A4243DF9741035F0FA7BFF78097C00DE
:100CFB007D007E007F0312081D750C03750D250208
:020D0B00112EA7
:10100300EF60160542E542C394C8402B7542C8E51C
:101013003970247539017F0222E542C394C8400721
:10102300E4F542F539FF22E542C394084006E4F5AE
:0A103300427F0122E4F5427F002213
:100F76007F04782FE4F608DFFC7F047B007A007993
:100F86002F750E00750F04E4FDFC120FBE12111032
:100F9600852F4685303A85313385324A753D14E5CD
:100FA600466005D394054003754601E53A6005D3CE
:070FB60094104003753A019D
:010FBD002211
:04001700E4F54622A4
:10107000E4FFFE121097121110854635853A368529
:101080003337854A387B007A007935750E00750F45
:0710900004E4FDFC020EDD8B
:100D79008B138A148915AB19AA1AA91B120843D314
:100D8900940A400574FF120889AB16AA17A918120C
:100D99000843D3940A400574FF120889AB13AA14B7
:100DA900A915120843D3940A400574FF120889ABA8
:100DB90013AA14A915120843FFAB16AA17A91812EA
:100DC9000843FDAB19AA1AA91B120843FB851C117C
:030DD900020D0DFB
:10001E00C2AF8F208D238B2230070BC2B20000D2CD
:10002E00B2000000800BC2B20000D2B200C2B20019
:10003E000030060BC2B20000D2B2000000800BC22C
:10004E00B20000D2B200C2B2000030050BC2B20044
:10005E0000D2B2000000800BC2B20000D2B200C2C9
:10006E00B2000030040BC2B20000D2B20000008019
:10007E000BC2B20000D2B200C2B2000030030BC2FB
:10008E00B20000D2B2000000800BC2B20000D2B2A9
:10009E0000C2B2000030020BC2B20000D2B20000A9
:1000AE0000800BC2B20000D2B200C2B2000030011A
:1000BE000BC2B20000D2B2000000800BC2B2000030
:1000CE00D2B200C2B2000030000BC2B20000D2B2F7
:1000DE00000000800BC2B20000D2B200C2B200001B
:1000EE00301F0BC2B20000D2B2000000800BC2B2B1
:1000FE000000D2B200C2B20000301E0BC2B200002D
:10010E00D2B2000000800BC2B20000D2B200C2B266
:10011E000000301D0BC2B20000D2B2000000800BF6
:10012E00C2B20000D2B200C2B20000301C0BC2B28A
:10013E000000D2B2000000800BC2B20000D2B200AA
:10014E00C2B20000301B0BC2B20000D2B2000000DF
:10015E00800BC2B20000D2B200C2B20000301A0B45
:10016E00C2B20000D2B2000000800BC2B20000D2B8
:10017E00B200C2B2000030190BC2B20000D2B200FF
:10018E000000800BC2B20000D2B200C2B20000303A
:10019E00180BC2B20000D2B2000000800BC2B20037
:1001AE0000D2B200C2B2000030170BC2B20000D2B1
:1001BE00B2000000800BC2B20000D2B200C2B20088
:1001CE000030160BC2B20000D2B2000000800BC28B
:1001DE00B20000D2B200C2B2000030150BC2B200A3
:1001EE0000D2B2000000800BC2B20000D2B200C238
:1001FE00B2000030140BC2B20000D2B20000008078
:10020E000BC2B20000D2B200C2B2000030130BC259
:10021E00B20000D2B2000000800BC2B20000D2B217
:10022E0000C2B2000030120BC2B20000D2B2000007
:10023E0000800BC2B20000D2B200C2B20000301178
:10024E000BC2B20000D2B2000000800BC2B200009E
:10025E00D2B200C2B2000030100BC2B20000D2B255
:10026E00000000800BC2B20000D2B200C2B2000089
:05027E00C2B2D2AF2264
:10028300C2AF8F208D238B2230070BC2B40000D264
:10029300B4000000800BC2B40000D2B400C2B400AA
:1002A3000030060BC2B40000D2B4000000800BC2C1
:1002B300B40000D2B400C2B4000030050BC2B400D5
:1002C30000D2B4000000800BC2B40000D2B400C25C
:1002D300B4000030040BC2B40000D2B400000080AC
:1002E3000BC2B40000D2B400C2B4000030030BC28E
:1002F300B40000D2B4000000800BC2B40000D2B43A
:1003030000C2B4000030020BC2B40000D2B400003B
:1003130000800BC2B40000D2B400C2B400003001AC
:100323000BC2B40000D2B4000000800BC2B40000C2
:10033300D2B400C2B4000030000BC2B40000D2B487
:10034300000000800BC2B40000D2B400C2B40000AD
:10035300301F0BC2B40000D2B4000000800BC2B443
:100363000000D2B400C2B40000301E0BC2B40000BF
:10037300D2B4000000800BC2B40000D2B400C2B4F7
:100383000000301D0BC2B40000D2B4000000800B8B
:10039300C2B40000D2B400C2B40000301C0BC2B41B
:1003A3000000D2B4000000800BC2B40000D2B4003D
:1003B300C2B40000301B0BC2B40000D2B400000072
:1003C300800BC2B40000D2B400C2B40000301A0BD8
:1003D300C2B40000D2B4000000800BC2B40000D24B
:1003E300B400C2B4000030190BC2B40000D2B40090
:1003F3000000800BC2B40000D2B400C2B4000030CD
:10040300180BC2B40000D2B4000000800BC2B400C9
:1004130000D2B400C2B4000030170BC2B40000D243
:10042300B4000000800BC2B40000D2B400C2B40018
:100433000030160BC2B40000D2B4000000800BC21F
:10044300B40000D2B400C2B4000030150BC2B40033
:1004530000D2B4000000800BC2B40000D2B400C2CA
:10046300B4000030140BC2B40000D2B4000000800A
:100473000BC2B40000D2B400C2B4000030130BC2EC
:10048300B40000D2B4000000800BC2B40000D2B4A8
:1004930000C2B4000030120BC2B40000D2B400009A
:1004A30000800BC2B40000D2B400C2B4000030110B
:1004B3000BC2B40000D2B4000000800BC2B4000031
:1004C300D2B400C2B4000030100BC2B40000D2B4E6
:1004D300000000800BC2B40000D2B400C2B400001C
:0504E300C2B4D2AF22FB
:1004E800C2AF8F208D238B2230070BC2910000D220
:1004F80091000000800BC2910000D29100C29100CF
:100508000030060BC2910000D291000000800BC29F
:10051800910000D29100C291000030050BC29100F9
:1005280000D291000000800BC2910000D29100C25D
:1005380091000030040BC2910000D29100000080AD
:100548000BC2910000D29100C291000030030BC28F
:10055800910000D291000000800BC2910000D2915E
:1005680000C291000030020BC2910000D29100003D
:1005780000800BC2910000D29100C29100003001AE
:100588000BC2910000D291000000800BC2910000C4
:10059800D29100C291000030000BC2910000D291AC
:1005A800000000800BC2910000D29100C2910000AF
:1005B800301F0BC2910000D291000000800BC29145
:1005C8000000D29100C2910000301E0BC2910000C1
:1005D800D291000000800BC2910000D29100C2911C
:1005E8000000301D0BC2910000D291000000800B6A
:1005F800C2910000D29100C2910000301C0BC29140
:100608000000D291000000800BC2910000D291003E
:10061800C2910000301B0BC2910000D29100000073
:10062800800BC2910000D29100C2910000301A0BD9
:10063800C2910000D291000000800BC2910000D24C
:100648009100C291000030190BC2910000D29100B4
:100658000000800BC2910000D29100C291000030CE
:10066800180BC2910000D291000000800BC29100CB
:1006780000D29100C291000030170BC2910000D245
:1006880091000000800BC2910000D29100C291003D
:100698000030160BC2910000D291000000800BC2FE
:1006A800910000D29100C291000030150BC2910058
:1006B80000D291000000800BC2910000D29100C2CC
:1006C80091000030140BC2910000D291000000800C
:1006D8000BC2910000D29100C291000030130BC2EE
:1006E800910000D291000000800BC2910000D291CD
:1006F80000C291000030120BC2910000D29100009C
:1007080000800BC2910000D29100C291000030110C
:100718000BC2910000D291000000800BC291000032
:10072800D29100C291000030100BC2910000D2910A
:10073800000000800BC2910000D29100C29100001D
:05074800C291D2AF22B6
:100D0D008F2B8D288B27EF75F01484853DF0A4F97A
:100D1D00ED75F01484853DF0A4FCEB75F01484851D
:100D2D003DF0A4FA900000C3E58295127480F86539
:100D3D0083985034E511B4010BAF01AD04AB021231
:100D4D00001E801EE511B4020BAF01AD04AB021203
:100D5D000283800EE511B40309AF01AD04AB02129D
:0B0D6D0004E830B506A380BF1210CAD6
:010D78002258
:0F112E00850C11850D12AB0BAD0AAF09020D0D2B
:03113D008F1D22E1
:1010B600E4F524F525C20AC20BF529F534C209C2A6
:0410C60008C20C222E
:100A1200C28EAF8D7548008F49E549AE487805C34F
:100A220033CE33CED8F9F5498E48E58B541F25498C
:100A3200F549E43548F548E525C43354E0FEE4259C
:100A420049F549EE3548F548F548854949E4F58BBD
:100A5200F58DF524F525D28E300A1BD3E54994D4C1
:100A6200E54894124010E5499434E548941C500638
:100A7200C20AD20B8050300B49D3E54994A6E5480F
:100A820094074010E54994FEE54894095006D209BE
:100A9200C208801FD3E54994E5E54894014010E57A
:100AA20049943DE54894045006D208C2098004C224
:100AB20008C2093009047F018005300814E4FF02EE
:100AC2000E8AC20AC20BE4F529F534C209C208C271
:020AD2000C22F4
:100C1000C28EAF8D7548008F49E549AE487805C34F
:100C200033CE33CED8F9F5498E48E58B541F25498C
:100C3000F549E43548F548E525C43354E0FEE4259C
:100C400049F549EE3548F548F548854949E4F58BBD
:100C5000F58DF524F525D28ED3E549943FE54894EA
:100C60002A401AE549949FE54894335010C20BD2AC
:100C70000AE4F529F534C209C208C20C22300B1A65
:100C8000D3E54994D1E5489401400CE5499429E520
:0B0C9000489404500200221210B6220B
:100E8A00300B4FE534700CF534F52CF541F540F58F
:100E9A003FF53E0534EF6003432C80E534B4080582
:100EAA00852C3E8027E534B41005852C3F801DE54E
:100EBA0034B41805852C408013E534B4200E852CF3
:100ECA0041D20CC209C208C20BE4F534E52CC313A3
:030EDA00F52C22D2
:1010F0005389F0758A0A758CD6D2A9D2AFD28C22C8
:03000B00020DDC07
:100DDC00C0E0C0D0758A0A758CD60544E544C3942E
:100DEC000A4042752D01754400E545D39400400638
:100DFC00D545031210B6052EE52EC3946440267516
:100E0C002E00E52A601FE53C453B6019E53C153C8E
:100E1C007002153B14453B700C120017752A0075B7
:0A0E2C003B00753C00D0D0D0E0324E
:1011000053890F758B17758DFED2ABD2AFD28E225D
:03001B000210DDF3
:1010DD00C0E0758B00758D000525E5257002052492
:0310ED00D0E0321E
:10109700AC069083047478F0EF908306F0EC9083AD
:0F10A70007F09083017483F09083047487F02224
:0A0EDD008B098A0A890B8C0C8D0D1D
:100EE700E4FD9083047478F09083017482F0EDC37D
:100EF700950FE4950E5029E50D908306F0E50C90CB
:100F07008307F0050DE50D7002050CAB09AA0AA9C8
:100F17000B8D8275830012085C908303F00D80CEE1
:060F27009083047487F0C2
:010F2D0022A1
:0A0FBE008B098A0A890B8C0C8D0D3B
:100FC800E4FD9083017481F0EDC3950FE4950E5014
:100FD80029E50D908306F0E50C908307F0050DE5F3
:100FE8000D7002050C908303E0AB09AA0AA90B8DCA
:0A0FF800827583001208AB0D80CE55
:0110020022CB
:100B9000020AD4E493A3F8E493A34003F68001F29D
:100BA00008DFF48029E493A3F85407240CC8C33366
:100BB000C4540F4420C8834004F456800146F6DF35
:100BC000E4800B0102040810204080900E36E47E81
:100BD000019360BCA3FF543F30E509541FFEE4932A
:100BE000A360010ECF54C025E060A840B8E493A3F1
:100BF000FAE493A3F8E493A3C8C582C8CAC583CA1C
:100C0000F0A3C8C582C8CAC583CADFE9DEE780BED3
:010E89000068
:10074D00E709F608DFFA8046E709F208DFFA803E8E
:10075D0088828C83E709F0A3DFFA8032E309F6087B
:10076D00DFFA8078E309F208DFFA807088828C83E3
:10077D00E309F0A3DFFA806489828A83E0A3F60897
:10078D00DFFA805889828A83E0A3F208DFFA804C71
:10079D0080D280FA80C680D4806980F28033801048
:1007AD0080A680EA809A80A880DA80E280CA8033B1
:1007BD0089828A83ECFAE493A3C8C582C8CCC58329
:1007CD00CCF0A3C8C582C8CCC583CCDFE9DEE780F9
:1007DD000D89828A83E493A3F608DFF9ECFAA9F078
:1007ED00EDFB2289828A83ECFAE0A3C8C582C8CCCE
:1007FD00C583CCF0A3C8C582C8CCC583CCDFEADEE7
:10080D00E880DB89828A83E493A3F208DFF980CC48
:10081D0088F0EF60010E4E60C388F0ED2402B40441
:10082D000050B9F582EB2402B4040050AF232345E8
:06083D00822390079D7369
:10084300BB010689828A83E0225002E722BBFE02B3
:09085300E32289828A83E49322E6
:10085C00BB010CE58229F582E5833AF583E0225051
:10086C0006E92582F8E622BBFE06E92582F8E2229B
:0D087C00E58229F582E5833AF583E49322B5
:10088900BB010989828A83F8E028F022500327F7FF
:1008990022BBFE05F8E328F3228A838982F8E493D0
:0208A900282203
:1008AB00F8BB010DE58229F582E5833AF583E8F083
:1008BB00225006E92582C8F622BBFE05E92582C82F
:0208CB00F22217
:1008CD00EF8DF0A4A8F0CF8CF0A428CE8DF0A42E3F
:0208DD00FE22F9
:1008DF00EB9FF5F0EA9E42F0E99D42F0EC6480C890
:0608EF0064809845F02230
:1008F500D083D082F8E4937012740193700DA3A392
:1009050093F8740193F5828883E4737402936860A5
:06091500EFA3A3A380DFA5
:00000001FF
